:1000000016C030C02FC02EC0DAC12CC02BC02AC0F1
:1000100029C028C027C026C025C024C023C0010293
:1000200004081020010101010101003800371124EA
:100030001FBECFE5D2E0DEBFCDBF10E0A0E6B0E04E
:10004000E2E5F8E002C005900D92A836B107D9F7B5
:1000500020E0A8E6B0E001C01D92A63BB207E1F7A0
:1000600032D3F5C3CDCF82E030D261E08091AA00D7
:1000700082D261E0809164007EC2AF92BF92CF9243
:10008000DF92EF92FF920F931F93809198009091CF
:100090009900909397008093960080919A00909198
:1000A0009B00909399008093980080919C00909180
:1000B0009D0090939B0080939A0080919E00909168
:1000C0009F0090939D0080939C008091660000D2D9
:1000D00090939F0080939E008C3F93400CF4F2C05D
:1000E00080919C0090919D008C3F93400CF4EAC05D
:1000F00080919A0090919B008C3F93400CF0E2C05D
:100100008091980090919900853493400CF0DAC06A
:100110008091960090919700853423E092070CF02F
:10012000D1C010928F0010928E0040919200509199
:10013000930050939100409390002091940030914F
:1001400095003093930020939200909395008093B4
:100150009400FA01E20FF31FE80FF91FB42FA52F47
:100160004817590714F4B82FA92F6B2F7A2F62174D
:1001700073070CF4B901E61BF70B841795070CF411
:10018000AC01241735070CF4A9019F01241B350B82
:100190002F3231053CF02C3882E038072CF02BE868
:1001A00032E002C02FE230E040916C0050916D00CF
:1001B000FA01EE0FFF1FE259FF4F80916A00909104
:1001C0006B0060817181861B970B31832083820FC6
:1001D000931F90936B0080936A009A012F5F3F4FAB
:1001E000203131052CF430936D0020936C0004C055
:1001F00010926D0010926C0097FD0F96BC0184E088
:10020000759567958A95E1F770936900609368002A
:10021000882777FD8095982F1F921F9227E02F93B4
:1002200020ED2F9328EEA22E23E0B22EC12CD12C4C
:100230001FE2E12EF12C00E010E02BE832E040E07C
:1002400050E0FFD16091680070916900882777FDC8
:100250008095982F1F921F921F922FEF2F93A12C02
:10026000B12C65012BE832E040E050E0EAD180910A
:10027000AA004CD16091680070916900882777FDD1
:100280008095982F1F921F921F9224E12F9344EF85
:10029000A42EBB24B394C12CD12C2BE832E040E037
:1002A00050E0CFD16093A0007093A1008093A20092
:1002B0009093A3008DB79EB70C960FB6F8949EBF8F
:1002C0000FBE8DBF80918E0090918F000196883E69
:1002D00023E092072CF490938F0080938E0015C03A
:1002E00010928F0010928E0060E070E08091AA0062
:1002F0000DD184EF91E0A0E0B0E08093A000909356
:10030000A100A093A200B093A300A4D00091A600E6
:100310001091A7002091A8003091A9006B017C01E9
:10032000C01AD10AE20AF30A0091A0001091A100BC
:100330002091A2003091A300C016D106E206F30678
:1003400030F16093A6007093A7008093A80090936B
:10035000A9008091A4009091A500892B39F481E037
:1003600090E09093A5008093A40004C01092A50093
:100370001092A4006091A400809164001F910F91DD
:10038000FF90EF90DF90CF90BF90AF902BC11F9167
:100390000F91FF90EF90DF90CF90BF90AF900895B6
:1003A00083B7887F83BF8AB58C7F81608ABD83B71E
:1003B000877F83BF83B7887F836083BF08957894E6
:1003C0001F920F920FB60F9211242F933F938F938A
:1003D0009F93AF93BF938091AD009091AE00A09199
:1003E000AF00B091B0003091AC0023E0230F2D3767
:1003F00030F026E8230F0296A11DB11D03C001961F
:10040000A11DB11D2093AC008093AD009093AE0070
:10041000A093AF00B093B0008091B1009091B20072
:10042000A091B300B091B4000196A11DB11D8093BD
:10043000B1009093B200A093B300B093B400BF9109
:10044000AF919F918F913F912F910F900FBE0F9081
:100450001F9018952FB7F8946091AD007091AE0081
:100460008091AF009091B0002FBF0895E1E0F0E0DF
:1004700081E28093570084910895CF93C1B7F6DF4E
:10048000C81749F001B607FE03C081B7875002C004
:1004900081B7855081BF789480B7806880BF80B76E
:1004A000806480BF8CB580648CBD8FEF8DBD80B7BC
:1004B000807F876080BF89B7846089BF71DF86B124
:1004C000876086B9379ACF9108958093B5000895D3
:1004D000863008F086503091B50027B1932F929561
:1004E000990F990F907C2F72922B32FB332730F9A2
:1004F0003295307F932B97B997B1907F982B97B90E
:10050000369A3699FECF84B195B108951F93CF9353
:10051000DF93182FEB0161E02ED01C161D0614F09E
:1005200060E004C0CF3FD10534F061E0812FDF915E
:10053000CF911F9157C0111106C08AB58F73806883
:100540008ABDC9BD14C0113031F48AB58F7C806278
:100550008ABDC8BD0CC0143031F48CB58F7C80626C
:100560008CBDCBBD04C0C038D105FCF6D9CFDF911E
:10057000CF911F910895CF93DF9390E0FC01E25E4D
:10058000FF4F2491FC01EC5DFF4F8491882339F1EA
:1005900090E0FC01E45DFF4FA491B0E0FC01E65D5A
:1005A000FF4F8491611106C09FB7F8948C912095FC
:1005B000822313C0623069F4C82FD0E09FB7F8944B
:1005C0008C91322F309583238C938881822B888362
:1005D00005C09FB7F8948C91822B8C939FBFDF91BD
:1005E000CF910895A82FB0E0FD01E25EFF4F9491F6
:1005F000FD01EC5DFF4FE491EE2311F1811103C089
:100600008AB58F7304C0813021F48AB58F7C8ABD8E
:1006100005C0843019F48CB58F7C8CBDF0E0E65DAC
:10062000FF4FA491B0E02FB7611105C0F8948C91F1
:100630009095892303C0F8948C91892B8C932FBFBC
:1006400008954F925F926F927F92AF92BF92CF9236
:10065000DF92EF92FF920F931F93CF93DF93CDB76B
:10066000DEB729013A0129893A894B895C896419E5
:100670007509860997092A193B094C095D0943D078
:10068000A32FF42FE52FE418F50806091709622FA8
:100690007A2F8F2F9E2FA801970119D02A0D3B1D6D
:1006A0004C1D5D1DCA01B901DF91CF911F910F91C2
:1006B000FF90EF90DF90CF90BF90AF907F906F90C2
:1006C0005F904F900895D9DECEDCD7DCFECF052EAB
:1006D00097FB16F400940FD057FD05D068D007FCA7
:1006E00002D046F408C050954095309521953F4F73
:1006F0004F4F5F4F089590958095709561957F4F0E
:100700008F4F9F4F089568940013E894A0E0B0E0E5
:10071000EBE8F3E01DC0EFEFE7F959016A015E2352
:10072000550FEE08FE2C87019B01AC019E23990F0B
:10073000660B762FCB015DD0CDB7DEB7EAE024C0E3
:100740002F923F924F925F926F927F928F929F92E1
:10075000AF92BF92CF92DF92EF92FF920F931F93CF
:10076000CF93DF93CDB7DEB7CA1BDB0B0FB6F89480
:10077000DEBF0FBECDBF09942A88398848885F84C0
:100780006E847D848C849B84AA84B984C884DF8031
:10079000EE80FD800C811B81AA81B981CE0FD11D15
:1007A0000FB6F894DEBF0FBECDBFED010895A1E2F4
:1007B0001A2EAA1BBB1BFD010DC0AA1FBB1FEE1FDB
:1007C000FF1FA217B307E407F50720F0A21BB30B26
:1007D000E40BF50B661F771F881F991F1A9469F7A2
:1007E00060957095809590959B01AC01BD01CF01FE
:1007F0000895DF93CF939F92A0E49A2E0024D00116
:10080000E001F00116950795F794E794D794C79403
:10081000B794A79448F41068A20FB31FC41FD51F44
:10082000E61FF71F081E191E220F331F441F551FF6
:10083000661F771F881F991F9A9421F79D01AE01AB
:10084000BF01C00111249F90CF91DF910895F894CA
:02085000FFCFD8
:08085200010000000100070095
:00000001FF
